:020000040800F2
:1000000000500020013A00083108000833080008B9
:10001000350800083708000839080008000000000B
:100020000000000000000000000000003B08000885
:100030003D080008000000003F08000841080008D3
:10004000493A0008493A0008493A0008493A000884
:10005000493A0008493A00084908000853080008CE
:10006000493A0008493A0008493A00085D08000882
:10007000493A0008493A0008493A0008493A000854
:10008000493A0008493A00086D080008493A000852
:10009000493A0008493A0008493A00087D08000832
:1000A000493A0008493A0008493A0008493A000824
:1000B000493A0008493A0008493A0008493A000814
:1000C000493A0008493A0008493A0008493A000804
:1000D00095080008A5080008493A0008493A0008B0
:1000E000B5080008493A0008493A00080000000035
:1000F0000000000000000000000000000000000000
:0C01000000000000000000005FF808F1A3
:10010C000348044B834202D0034B03B1184770479A
:10011C001800002018000020000000000548064BC5
:10012C001B1AD90F01EBA301491002D0034B03B1E9
:10013C00184770471800002018000020000000002D
:10014C0010B5064C237843B9FFF7DAFF044B13B113
:10015C000448AFF300800123237010BD1800002069
:10016C0000000000A43A000808B5054B1BB1054976
:10017C000548AFF30080BDE80840FFF7CFBF00BFD4
:10018C00000000001C000020A43A00082DE9F04FEC
:10019C0089B004AD00240494059406940794564B3E
:1001AC009A6942F010029A619A6902F01002019267
:1001BC00019A9A6942F004029A619A6902F0040267
:1001CC000292029A9A6942F008029A619B6903F0C2
:1001DC0008030393039BDFF8248122464FF48051DC
:1001EC00404601F0C8FC464F22464FF4C0513846F9
:1001FC0001F0C1FC4FF4804304930594012606964C
:10020C002946404801F0A2FBC0230493DFF8F8A074
:10021C00CDF814A006962946384601F097FB4FF00E
:10022C000309CDF81090CDF814A006962946404647
:10023C0001F08CFB4FF4006BCDF810B0334B0593F1
:10024C0006962946404601F081FB4FF480520492F9
:10025C0005960694CDF81C902946404601F076FB95
:10026C004FF480730493CDF814A0069429463846B5
:10027C0001F06CFBCDF810B005960694CDF81C90EF
:10028C002946384601F062FB4FF4805204920596E1
:10029C000694022307932946384601F057FB4FF486
:1002AC0000430493194B059306962946384601F0F2
:1002BC004DFB22462146062001F050FE062001F09F
:1002CC005DFE22462146072001F048FE072001F082
:1002DC0055FE22462146172001F040FE172001F062
:1002EC004DFE22462146282001F038FE282001F040
:1002FC0045FE09B0BDE8F08F00100240000C014033
:10030C0000080140001001400000211000003110D5
:10031C0000B583B00A4B5A6942F001025A615B691D
:10032C0003F001030193019B002211460B2001F005
:10033C0015FE0B2001F022FE03B05DF804FB00BF9C
:10034C000010024008B50A4B1B7A03B908BD00F037
:10035C0033FF074B1A68801A5B689842F6D3002269
:10036C00034B1A724FF48051024801F004FCEDE784
:10037C00400000200008014010B5044600F01CFFAE
:10038C00054B18605C6001221A724FF480510348CF
:10039C0001F0F1FB10BD00BF40000020000801403F
:1003AC0038B50446084D01224FF48051284601F01F
:1003BC00E2FB204600F006FF00224FF48051284655
:1003CC0001F0D9FB38BD00BF0008014008B564201E
:1003DC00FFF7E6FF642000F0F5FE6420FFF7E0FF76
:1003EC0008BD704738B5044600F0E6FE0546631EAE
:1003FC009BB2012B0CD903F03FFA28B1B4F5004F96
:10040C001AD0B4F5006F2ED0B4F5807F42D038BD31
:10041C00224B1B68C31A632BEDD9012C08D0012089
:10042C0003F050FA1D4B1D600A20FFF7A5FFE2E711
:10043C00002003F047FAF5E7194B1B68EB1A632B06
:10044C00DFD94FF40041174801F08EFB0028D8D1BA
:10045C00154A137883F001031370114B1D600520AE
:10046C00FFF78AFFCDE7114B1B68EB1A632BCBD937
:10047C004FF400610E4801F077FB0028C4D10D4AFF
:10048C00137883F001031370084B1D600520FFF7F0
:10049C0073FFB9E703F094FAB9E700BF3C00002002
:1004AC0038000020000801408100002034000020AA
:1004BC00000C0140800000200268074B9A4200D0DB
:1004CC00704710B5054C204603F0DEF90C2221468E
:1004DC00034802F0EAFD10BD003801407400002012
:1004EC008C00002008B50268064B9A4200D008BD6B
:1004FC00054B00221A740C220449054802F0D5FD64
:10050C00F5E700BF00380140800200207400002095
:10051C008C00002072B6FEE700B585B00023019375
:10052C00029303932248234A02604FF48072826044
:10053C000122027303754FF46022C26143600423ED
:10054C00036100F053FD48BB002301930123029388
:10055C000723039301A9164800F0A0FB00BB01235D
:10056C0001930223029301A9114800F097FBC8B92B
:10057C00022301930323029301A90D4800F08EFB83
:10058C0090B903230193042302930DEB0301084854
:10059C0000F084FB50B905B05DF804FBFFF7BAFF1F
:1005AC00FFF7B8FFFFF7B6FFFFF7B4FFFFF7B2FF97
:1005BC001C0200200024014008B50D480D4B0360BF
:1005CC004FF4E13343604FF4805383604FF4005396
:1005DC00C3604FF4806303610C2343610023836188
:1005EC00C36102F00BFD00B908BDFFF793FF00BF1C
:1005FC008C0000200038014008B50A480A4B036003
:10060C000A4B436000238360C3604FF48042026155
:10061C0043618361C361036201F0D2FC00B908BD80
:10062C00FFF778FF8401002000540040400D0300C8
:10063C0008B50D480D4B03604FF4827343600023E3
:10064C008360C360036143614FF400728261C361D4
:10065C000362436283620A23C36201F05FFE00B946
:10066C0008BDFFF757FF00BF040100200038004011
:10067C0010B594B00AAC28220021204603F0DFF913
:10068C000023059306930793089309930193029310
:10069C000393049302230A9301220E9210220F92C9
:1006AC0011934FF4C0131393204600F0B5FDC8B955
:1006BC000F23059302230693002307934FF48062C4
:1006CC0008920993012105A800F0D8FF60B9022314
:1006DC0001934FF48043039301A801F0ABF828B9C0
:1006EC0014B010BDFFF716FFFFF714FFFFF712FF52
:1006FC0010B500F043FDFFF7BBFFFFF747FDFFF719
:10070C0007FEFFF709FFFFF757FFFFF775FFFFF72E
:10071C008FFF394C01224FF48051204601F02BFA07
:10072C00642000F04FFD00224FF48051204601F070
:10073C0022FA04223149324800F094FB642000F084
:10074C0041FD03F025F84FF4FA7000F03BFD4FF437
:10075C0080412C4801F008FA0028F8D100224FF40F
:10076C00805100F1804000F5843001F004FA264AF3
:10077C004FF400611180002353809180D180234974
:10078C0044220A80224A41F2020010804B8040F63B
:10079C00BB7050805820888041F2170090807220E6
:1007AC00C88041F23301D1800AE0144A32F8132098
:1007BC00154931F81310521A164921F81320013338
:1007CC00032BF2DD002306E00C4A32F81310124A18
:1007DC0022F813100133032BF6DDFFF7F7FD0C2283
:1007EC000E490F4802F061FCFFF7ACFD03F08EF8E8
:1007FC0003F0BAF8F8E700BF0008014084000020BD
:10080C001C020020001001406C0000205C00002045
:10081C0054000020640000204C00002074000020D4
:10082C008C000020FEE7FEE7FEE7FEE7FEE77047E0
:10083C007047704708B500F0B3FC08BD08B501203F
:10084C0001F0A0F908BD08B5022001F09BF908BD24
:10085C0008B5024801F09AFA08BD00BFD801002083
:10086C0008B5024800F09AF908BD00BF1C02002030
:10087C0008B5402001F086F9802001F083F94FF48F
:10088C00807001F07FF908BD08B5024802F098F8B5
:10089C0008BD00BF0401002008B5024802F046FA6A
:1008AC0008BD00BF8C00002008B54FF4006001F0BB
:1008BC0069F94FF4004001F065F908BD82B00E4BA8
:1008CC009A6942F001029A619A6902F0010200925F
:1008DC00009ADA6942F08052DA61DB6903F08053E6
:1008EC000193019B054A536823F0E06343F00073C6
:1008FC00536002B0704700BF00100240000001407E
:10090C0010B586B0002302930393049305930268F9
:10091C00224B9A4201D006B010BD044603F56C433D
:10092C009A6942F400729A619A6902F40072009218
:10093C00009A9A6942F004029A619B6903F00403DD
:10094C000193019B0F2302930323039302A91448E1
:10095C0000F0FCFF1348144B0360002343608360DA
:10096C008022C2604FF4807202614FF48062426157
:10097C0020228261C36101F029F958B9094B236225
:10098C005C6200220221122001F0E8FA122001F030
:10099C00F5FAC0E7FFF7BEFDF0E700BF0024014009
:1009AC0000080140D80100200800024010B586B0B4
:1009BC00002302930393049305930268114B9A420C
:1009CC0001D006B010BD104CA36943F00803A3611D
:1009DC00A36903F008030093009BC0230293122326
:1009EC0003930323059302A9084800F0AFFFE369C2
:1009FC0043F40013E361E36903F400130193019BD7
:100A0C00DFE700BF0054004000100240000C014022
:100A1C0030B587B0002302930393049305930268C7
:100A2C001B4B9A4201D007B030BD03F5EC33DA69A9
:100A3C0042F48042DA61DA6902F480420092009A50
:100A4C009A6942F008029A619B6903F008030193CA
:100A5C00019B4FF42043029302230393032305933A
:100A6C000C4D02A9284600F071FF4FF4804302930D
:100A7C0000240394049402A9284600F067FF224640
:100A8C002146242001F06AFA242001F077FACAE703
:100A9C0000380040000C014030B587B000230293B1
:100AAC0003930493059302681B4B9A4201D007B041
:100ABC0030BD03F558439A6942F480429A619A69B1
:100ACC0002F480420092009A9A6942F004029A6100
:100ADC009B6903F004030193019B4FF40073029391
:100AEC0002230393032305930C4D02A9284600F01F
:100AFC002DFF4FF48063029300240394049402A905
:100B0C00284600F023FF22462146252001F026FA34
:100B1C00252001F033FACAE70038014000080140F3
:100B2C0070477047704708B5436A9A6A12F0500FC5
:100B3C001ED19A6A42F400729A621A68926802F4A0
:100B4C006022B2F5602F03D01A6B1846904708BD8F
:100B5C001A7B002AF8D19A6A22F480729A629A6AF5
:100B6C0012F4805FF0D19A6A42F001029A62EBE7CC
:100B7C001B6A1B6B9847EAE708B5406A436B9847BA
:100B8C0008BD08B5406A836A43F040038362C36AB8
:100B9C0043F00403C362C36B984708BD70B50446A9
:100BAC0003681E685D6815F0200F17D016F0020F51
:100BBC0014D0826A12F0100F03D1826A42F40072D0
:100BCC0082629A6802F46022B2F5602F3ED0236BE9
:100BDC002046984723686FF012021A6015F0800FB8
:100BEC0022D016F0040F1FD0A36A13F0100F03D1FC
:100BFC00A36A43F40053A3622268936803F4E043AE
:100C0C00B3F5E04F39D0536813F4806F05D1936876
:100C1C0003F46023B3F5602F2CD0236C2046984747
:100C2C0023686FF00C021A6015F0400F0DD016F00F
:100C3C00010F0AD0A36A43F48033A362A36B20464E
:100C4C00984723686FF001021A6070BD227B002A5E
:100C5C00BDD15A6822F020025A60A36A23F4807333
:100C6C00A362A36A13F4805FB1D1A36A43F00103BA
:100C7C00A362ACE7237B002BCFD1536823F0800316
:100C8C005360A36A23F48053A362A36A13F4807F96
:100C9C00C3D1A36A43F00103A362BEE730B482B0B0
:100CAC000022019290F82420012A00F08F80034644
:100CBC00012280F824204A68062A2DD80468606B2B
:100CCC0002EB8202053A4FF01F0C0CFA02FC20EAF0
:100CDC000C000D6805FA02F2024362630A68092AE5
:100CEC0038D91C68E06802EB42021E3A4FF0070C40
:100CFC000CFA02FC20EA0C008D6805FA02F20243A1
:100D0C00E2600A68103A012A34D90020002283F8E4
:100D1C00242002B030BC70470C2A0DD80568286B13
:100D2C0002EB8202233A1F24944020EA04000C6850
:100D3C00944020432863D1E70568E86A02EB8202FD
:100D4C00413A1F24944020EA04000C68944020434C
:100D5C00E862C3E71C68206902EB42024FF0070C03
:100D6C000CFA02FC20EA0C008D6805FA02F2024330
:100D7C002261C6E71A681648824205D09A6A42F088
:100D8C0020029A620120C1E7906810F4000F1BD179
:100D9C00906840F4000090600A68102A01D000208E
:100DAC00B4E70C4A12680C49A1FB0212920C02EB3C
:100DBC0082025200019202E0019A013A0192019AD8
:100DCC00002AF9D10020A1E700209FE70220A0E72C
:100DDC00002401400800002083DE1B4330B583B0A3
:100DEC000023019303689A6812F0010F33D1044673
:100DFC009A6842F001029A60184B1B68184AA2FBD1
:100E0C0003239B0C019302E0019B013B0193019B8B
:100E1C00002BF9D100F0D0F9054623689B6813F03C
:100E2C00010F16D100F0C8F9431B022BF5D923682A
:100E3C009B6813F0010FF0D1A36A43F01003A36277
:100E4C00E36A43F00103E362002384F824300120B9
:100E5C0002E0002000E0002003B030BD08000020BC
:100E6C0083DE1B43F8B504460D461646016844481C
:100E7C00814259D0434B994256D094F82430012BDF
:100E8C007CD0012384F824302046FFF7A7FF0746C7
:100E9C0000286ED1A16A21F4706121F0010141F4A6
:100EAC008071A1622268374B9A4244D0A36A23F422
:100EBC008013A362536813F4806F05D0A36A23F4E4
:100ECC00405343F48053A362A36A13F4805F48D069
:100EDC00E36A23F00603E362002384F82430236AD8
:100EEC00294A9A62236A294ADA62236A284A1A63CF
:100EFC0023686FF002021A602268936843F48073CF
:100F0C009360216833462A464C31206A00F094FEE7
:100F1C0023689A6802F46022B2F5602F24D09A6894
:100F2C0042F480129A6027E0154B5B6813F4702F23
:100F3C00A3D0012720E0A3F580635B6813F4702F26
:100F4C00B4D0A36A43F48013A3620D4B5B6813F413
:100F5C00806FB9D0A36A23F4405343F48053A36247
:100F6C00B2E70023E362B7E79A6842F4A0029A6002
:100F7C0002E0002384F824303846F8BD0227FBE752
:100F8C000024014000280140330B0008850B0008A9
:100F9C008F0B000838B503689A6812F0010F01D165
:100FAC00002038BD04469A6822F001029A6000F0D5
:100FBC0003F9054623689B6813F0010F13D000F06A
:100FCC00FBF8431B022BF5D923689B6813F0010F28
:100FDC00F0D0A36A43F01003A362E36A43F0010369
:100FEC00E3620120DDE70020DBE70000002800F0D1
:100FFC008B8070B50446836A93B9C36280F8243041
:10100C00424B0363424B4363424B8363424BC36388
:10101C00424B0364436C002B50D0636C20469847C2
:10102C002046FFF7B7FFA36A13F0100366D1002820
:10103C0064D1A26A22F4885222F0020242F0020227
:10104C00A2626268E1690A43217B42EA4102A56817
:10105C00B5F5807F02D0012D33D01D46267D012EA3
:10106C0032D02668716821F4694129437160256882
:10107C00AE682B4931401143A960A168B1F5807F5E
:10108C0001D0012902D12369013B1B052568E96ABE
:10109C0021F470010B43EB6223689968214B0B40E0
:1010AC009A4222D0A36A23F0120343F01003A362E6
:1010BC00E36A43F00103E362012024E01A4B43642A
:1010CC00ABE74FF48075C9E731B9A169013945EA3D
:1010DC00413141F40065C4E7A16A41F02001A162ED
:1010EC00E16A41F00101E162BBE70023E362A36A1C
:1010FC0023F0030343F00103A36204E0A36A43F06B
:10110C001003A362012070BD01207047EF0300089B
:10111C002D0B00082F0B0008310B000839110008AB
:10112C00FDF7E1FFFE0E1FFF0D09000870470000E0
:10113C0010B504460E4B1A784FF47A73B3FBF2F3E6
:10114C000C4A1068B0FBF3F000F026FF68B90F2CC6
:10115C0001D901200AE0002221464FF0FF3000F0B7
:10116C00FDFE054B1C60002000E0012010BD00BFFF
:10117C0000000020080000200400002008B5074AE9
:10118C00136843F010031360032000F0D5FE0F200A
:10119C00FFF7CEFFFFF792FB002008BD00200240B6
:1011AC00034A1168034B1B780B441360704700BF54
:1011BC006802002000000020014B1868704700BF37
:1011CC006802002038B50446FFF7F6FF0546B4F177
:1011DC00FF3F02D0044B1B781C44FFF7EDFF401B74
:1011EC00A042FAD338BD00BF0000002082B0084BEB
:1011FC001B68084AA2FB03235B0A00FB03F3019361
:10120C0000BF019B5A1E0192002BF9D102B070470E
:10121C0008000020D34D6210002800F0F18170B559
:10122C0082B00446036813F0010F2CD0994B5B6815
:10123C0003F00C03042B1DD0964B5B6803F00C03DE
:10124C00082B12D06368B3F5803F41D0002B55D1E9
:10125C0003F1804303F504331A6822F480321A60D8
:10126C001A6822F480221A6037E08A4B5B6813F408
:10127C00803FE7D0874B1B6813F4003F03D06368B3
:10128C00002B00F0BF81236813F0020F75D0814B47
:10129C005B6813F00C0F5FD07E4B5B6803F00C03A4
:1012AC00082B54D02369002B00F08A807A4B012242
:1012BC001A60FFF781FF0546764B1B6813F0020F8F
:1012CC0075D1FFF779FF401B0228F5D903209EE169
:1012DC00704A136843F480331360636843B3FFF7B9
:1012EC006BFF05466B4B1B6813F4003FCBD1FFF72C
:1012FC0063FF401B6428F5D9032088E1B3F5A02FC8
:10130C0009D0644B1A6822F480321A601A6822F4ED
:10131C0080221A60E1E703F18043A3F53C331A689D
:10132C0042F480221A601A6842F480321A60D4E7C0
:10133C00FFF742FF0546574B1B6813F4003FA2D042
:10134C00FFF73AFF401B6428F5D903205FE1514BAE
:10135C005B6813F4803FA5D14E4B1B6813F0020F52
:10136C0003D02369012B40F04F814A4A136823F0C4
:10137C00F803616943EAC1031360236813F0080F93
:10138C0033D0A369002B5CD0434B0122C3F88024DB
:10139C00FFF712FF05463F4B5B6A13F0020F21D19A
:1013AC00FFF70AFF401B0228F5D903202FE1394A29
:1013BC00136823F0F803616943EAC1031360DCE7A7
:1013CC00354B00221A60FFF7F7FE0546314B1B68C0
:1013DC0013F0020FD1D0FFF7EFFE401B0228F5D916
:1013EC00032014E10120FFF701FF236813F0040F21
:1013FC0000F09680274BDB6913F0805F34D1254BCE
:10140C00DA6942F08052DA61DB6903F080530193B0
:10141C00019B0125214B1B6813F4807F26D0E368C8
:10142C00012B3DD0002B53D103F1804303F5043342
:10143C001A6A22F001021A621A6A22F004021A6273
:10144C0033E0154B0022C3F88024FFF7B5FE0546A8
:10145C00104B5B6A13F0020FC7D0FFF7ADFE401BB9
:10146C000228F5D90320D2E00025D3E70B4A1368F4
:10147C0043F480731360FFF79FFE0646074B1B680F
:10148C0013F4807FCBD1FFF797FE801B6428F5D92E
:10149C000320BCE0001002400000424200700040FB
:1014AC005F4A136A43F001031362E36833B3FFF737
:1014BC0083FE06465A4B1B6A13F0020F2FD1FFF71F
:1014CC007BFE801B41F288339842F3D903209EE0C7
:1014DC00052B09D0524B1A6A22F001021A621A6AC1
:1014EC0022F004021A62E0E74D4B1A6A42F0040241
:1014FC001A621A6A42F001021A62D6E7FFF75CFE22
:10150C000646474B1B6A13F0020F08D0FFF754FE38
:10151C00801B41F288339842F3D9032077E0E5B978
:10152C00E369002B72D03E4A526802F00C02082A82
:10153C0056D0022B17D03B4B00221A66FFF73CFE0D
:10154C000446374B1B6813F0007F47D0FFF734FE7F
:10155C00001B0228F5D9032059E0314AD36923F046
:10156C008053D361DCE72F4B00221A66FFF724FE71
:10157C0005462B4B1B6813F0007F06D0FFF71CFEB3
:10158C00401B0228F5D9032041E0236AB3F5803FC4
:10159C001AD023494B6823F47413226A606A0243FD
:1015AC0013434B601F4B01221A66FFF705FE0446DE
:1015BC001B4B1B6813F0007F0ED1FFF7FDFD001BCA
:1015CC000228F5D9032022E0154A536823F400338E
:1015DC00A1680B435360DCE7002018E0002016E004
:1015EC00012B16D00E4B5B6803F48031226A9142BA
:1015FC0011D103F47013626A93420ED1002006E0FD
:10160C0001207047012002E0012000E0002002B020
:10161C0070BD0120FBE70120F9E70120F7E700BFCF
:10162C0000100240000042420F4B5B6803F00C02BA
:10163C00082A01D00D487047C3F383420C49885CDB
:10164C0013F4803F0BD0084B5B68C3F34043094A4B
:10165C00D35C064A02FB00F0B0FBF3F07047064B7C
:10166C0003FB00F0704700BF0010024000127A002C
:10167C00C03A0008BC3A000800093D00002800F000
:10168C00A08070B50D460446524B1B6803F007034F
:10169C008B420BD24F4A136823F007030B431360A2
:1016AC00136803F007038B4240F08D80236813F01E
:1016BC00020F17D013F0040F04D0474A536843F4B9
:1016CC00E0635360236813F0080F04D0424A536858
:1016DC0043F460535360404A536823F0F003A1680D
:1016EC000B435360236813F0010F31D06368012B57
:1016FC0020D0022B25D0384A126812F0020F64D089
:10170C0035494A6822F0030213434B60FFF754FD3E
:10171C000646314B5B6803F00C036268B3EB820F37
:10172C0016D0FFF749FD801B41F288339842F0D95F
:10173C00032045E0284A126812F4003FE0D1012052
:10174C003EE0254A126812F0007FD9D1012037E023
:10175C00204B1B6803F00703AB420AD91D4A1368E0
:10176C0023F007032B431360136803F00703AB420A
:10177C002DD1236813F0040F06D0174A536823F4B5
:10178C00E063E1680B435360236813F0080F07D044
:10179C00114A536823F46053216943EAC10353602F
:1017AC00FFF742FF0C4B5B68C3F303130B4AD35C8C
:1017BC00D8400B4B18600B4B1868FFF7B9FC002096
:1017CC0070BD012070470120FAE70120F8E70120E5
:1017DC00F6E700BF0020024000100240D83A000893
:1017EC000800002004000020014B1868704700BF5F
:1017FC000800002008B5FFF7F7FF044B5B68C3F344
:10180C000223034AD35CD84008BD00BF001002403D
:10181C00D03A000808B5FFF7E7FF044B5B68C3F349
:10182C00C223034AD35CD84008BD00BF001002405D
:10183C00D03A000870B582B00446036813F0010F6B
:10184C0036D03F4BDB6913F0805F49D13C4BDA69F2
:10185C0042F08052DA61DB6903F080530193019B03
:10186C000125384B1B6813F4807F3BD0344B1B6A2B
:10187C0013F4407313D0626802F440729A420ED093
:10188C002F4A136A23F440702F490126C1F8406493
:10189C000026C1F84064106213F0010F36D1284ABB
:1018AC00136A23F4407361680B431362002D3ED11D
:1018BC00236813F0020F06D0214A536823F44043E7
:1018CC00A1680B435360236813F0100F34D01C4AEB
:1018DC00536823F48003E1680B43536000202CE031
:1018EC000025BEE7174A136843F480731360FFF7B3
:1018FC0063FC0646134B1B6813F4807FB6D1FFF7CD
:10190C005BFC801B6428F5D9032016E0FFF754FC20
:10191C0006460B4B1B6A13F0020FC0D1FFF74CFCB1
:10192C00801B41F288339842F3D9032005E0D36938
:10193C0023F08053D361BBE7002002B070BD00BF21
:10194C0000100240007000400000424270B582B0AE
:10195C000024A446A2E07E4DAB4210D007D97D4DA9
:10196C00AB420CD005F58035AB4208D013E0A5F5A1
:10197C008015AB4203D005F57025AB4207D18B68BF
:10198C00002B55D0012B4ED04261082403E0A5F565
:10199C008015AB42F3D0BEF1FF0F4BD806464FEA91
:1019AC008C0233680F25954023EA050304FA02F2F2
:1019BC00134333604B6813F0805F6DD0664B9A69AC
:1019CC0042F001029A619B6903F001030193019BB0
:1019DC004FEA9C02951C614B53F825600CF00305F3
:1019EC00AD000F23AB4026EA03065D4B984228D08E
:1019FC0003F58063984200F08D8003F58063984274
:101A0C0000F08A8003F58063984218D0042319E013
:101A1C00CC68C0E7CC680434BDE7CC680834BAE7BE
:101A2C00CC680C34B7E702610824B4E70024B2E7B1
:101A3C000424B0E7061DACF108029200B1E70323C1
:101A4C0000E00023AB4033430232444D45F82230D2
:101A5C004B6813F4801F61D0424A936843EA0E032B
:101A6C0093604B6813F4001F5ED03E4AD36843EA80
:101A7C000E03D3604B6813F4003F5BD0394A5368B4
:101A8C0043EA0E0353604B6813F4803F58D0354A39
:101A9C00136843EA0E0313600CF1010C0B6833FA64
:101AAC000CF253D0012202FA0CF203EA020E32EAD3
:101ABC000303F1D14B68122B3FF64DAF122B3FF6BF
:101ACC006AAF01A555F823F08B1900081D1A000800
:101ADC00271A0008391A0008A3190008A3190008CE
:101AEC00A3190008A3190008A3190008A3190008DA
:101AFC00A3190008A3190008A3190008A3190008CA
:101B0C00A3190008A3190008A3190008211A00083A
:101B1C002D1A0008012395E7022393E7114A9368D5
:101B2C0023EA0E0393609CE70E4AD36823EA0E0364
:101B3C00D3609FE70B4A536823EA0E035360A2E776
:101B4C00084A136823EA0E031360A5E702B070BDC0
:101B5C000000221000003110001002400000014073
:101B6C0000080140000401408368194201D00120A3
:101B7C007047002070470AB1016170470904016188
:101B8C007047000008B5054B5B69034200D108BDE6
:101B9C00024B5861FEF726FCF9E700BF0004014038
:101BAC0030B40124056CAC40C56B6C600468636098
:101BBC004368102B05D0036899600368DA6030BC69
:101BCC00704703689A600368D960F8E760B310B493
:101BDC0002460168154B0B441548A0FB03031B0977
:101BEC009B001364134BD363022382F821300868E3
:101BFC0020F47F5020F03000536894682343D4685D
:101C0C002343146923435469234394692343D469BC
:101C1C00234303430B6000209063012382F821309F
:101C2C0082F8200010BC704701207047F8FFFDBF00
:101C3C00CDCCCCCC0000024038B5044690F8200046
:101C4C00012832D0012084F8200094F82100C0B281
:101C5C00012804D0002384F82030022038BD022053
:101C6C0084F821000020A0632568286820F001007A
:101C7C0028602046FFF794FFE36A5BB12268136883
:101C8C0043F00E0313602268136843F001031360E2
:101C9C000020E3E72268136823F004031360226832
:101CAC00136843F00A031360EDE70220D6E70346FE
:101CBC0090F82120D2B2022A06D00422826300229C
:101CCC0080F820200120704701680A6822F00E027B
:101CDC000A6001680A6822F001020A60026CC06B9B
:101CEC00012101FA02F2426083F82110002083F8EE
:101CFC002000704708B590F82130DBB2022B03D0DE
:101D0C0004238363012008BD0268136823F00E03CB
:101D1C0013600268136823F0010313600368194A07
:101D2C00934214D0143293421FD0143293421ED0DB
:101D3C00143293421ED0143293421ED0143293426A
:101D4C0002D04FF0807203E04FF4801200E00122C9
:101D5C000D4B5A60012380F82130002380F820308D
:101D6C00436B6BB198470020CDE71022F0E74FF49E
:101D7C008072EDE74FF48052EAE74FF48032E7E7E8
:101D8C000020C0E7080002400000024038B5C36BD9
:101D9C001A6804682568016C04238B40134235D003
:101DAC0015F0040F32D0236813F0200F03D12368F1
:101DBC0023F0040323600368434A934214D0143283
:101DCC00934218D01432934217D01432934217D046
:101DDC001432934217D01432934202D04FF08062E7
:101DEC0003E04FF4800200E00422384B5A60C36ACF
:101DFC0003B1984738BD4022F7E74FF48062F4E70F
:101E0C004FF48042F1E74FF48022EEE702238B403F
:101E1C0013423CD015F0020F39D0236813F0200F79
:101E2C0006D1236823F00A032360012380F82130B4
:101E3C000368254A934214D0143293421CD01432B6
:101E4C0093421BD0143293421BD0143293421BD0BA
:101E5C001432934202D04FF0007203E04FF40012A0
:101E6C0000E00222194B5A60002380F82030836A6C
:101E7C00002BBFD09847BDE72022F3E74FF4007248
:101E8C00F0E74FF40052EDE74FF40032EAE7082395
:101E9C008B401342AED015F0080FABD0236823F063
:101EAC000E032360026CC16B012303FA02F24A6039
:101EBC00836380F82130002380F82030036B002BE3
:101ECC0098D0984796E700BF0800024000000240F7
:101EDC00002808DB0901C9B200F1604000F561403F
:101EEC0080F80013704700F00F000901C9B2014BD4
:101EFC001954704714ED00E000B500F00700C0F174
:101F0C00070CBCF1040F28BF4FF0040C031D062B6B
:101F1C000FD9C31E4FF0FF3E0EFA0CF021EA000160
:101F2C0099400EFA03FE22EA0E0241EA02005DF825
:101F3C0004FB0023EEE70000074AD36823F4E063B8
:101F4C001B041B0C000200F4E060034343F0BF636E
:101F5C0043F40033D360704700ED00E010B5044645
:101F6C00054BD868C0F30220FFF7C6FF0146204698
:101F7C00FFF7AEFF10BD00BF00ED00E0002807DB4F
:101F8C0000F01F02400901239340024A42F820301E
:101F9C00704700BF00E100E00138B0F1807F0BD248
:101FAC004FF0E0235861054AF02182F823100020FD
:101FBC00986107221A6170470120704700ED00E01C
:101FCC00002800F0CC8070B5044690F83D30002B12
:101FDC0077D0242384F83D302268136823F0010362
:101FEC0013602268136843F400431360226813687B
:101FFC0023F400431360FFF7FDFB62685A4B9A42CF
:10200C0064D85A4B98428CBF00230123002B40F01C
:10201C00A8805749A1FB00318B0C25686A6822F017
:10202C003F0242EA91426A6021680A6A22F03F024A
:10203C0066684D4DAE424FD8013313430B62216895
:10204C00CA6922F44F4222F0FF026568464B9D425A
:10205C004CD8431E6D00B3FBF5F3013340F6FC7016
:10206C00034278D0C3F30B031A43CA6121680B688F
:10207C0023F0C003E269206A024313430B6021681A
:10208C008B6823F4034323F0FF032269E0680243C7
:10209C0013438B602168CB6823F0FF036269A0694E
:1020AC0002431343CB602268136843F001031360AF
:1020BC0000202064202384F83D30206384F83E0007
:1020CC0070BD80F83C30FEF771FC82E7294B9842DA
:1020DC008CBF0023012399E74FF4967505FB03F39E
:1020EC00254DA5FB03539B090133A6E7A668BEB992
:1020FC00431E05EB450CB3FBFCF30133C3F30B039D
:10210C00B3FA83F35B0943BBC6B9431E05EB450524
:10211C00B3FBF5F30133C3F30B0343F40043A3E721
:10212C00431E05EB850C0CEB8C0CB3FBFCF3013361
:10213C00C3F30B03B3FA83F35B09E4E7431E05EB2C
:10214C00850505EB8505B3FBF5F30133C3F30B03F1
:10215C0043F4404388E7042386E7012384E7012006
:10216C0070470120ACE700BFA08601007F841E00F1
:10217C0083DE1B43FF083D00D34D62107047704750
:10218C0070477047704770477047704708B5406A92
:10219C000023C387C386036F984708BD2DE9F0471A
:1021AC0082B00546884617461E46FFF705F80A9B7F
:1021BC001B1A03EB0609FEF7FFFF8246284B1B6830
:1021CC00C3F3CB3309FB03F301932B689C6838EA08
:1021DC0004040CBF01230023BB423DD0B6F1FF3FEA
:1021EC00F3D0FEF7E9FFA0EB0A00484507D2019AAD
:1021FC0002B14A46019B013B01939146E5E72A68EF
:10220C00536823F0E00353606B68B3F5827F0BD007
:10221C00AB6AB3F5005F14D0012385F8513000236D
:10222C0085F85030032018E0AB68B3F5004F02D0AE
:10223C00B3F5806FECD12A68136823F04003136068
:10224C00E6E72A68136823F4005313602A681368BE
:10225C0043F400531360DFE7002002B0BDE8F087C1
:10226C000800002070B582B006460C461546009258
:10227C000B4601220221FFF791FF48B90095234636
:10228C00002280213046FFF789FF38B902B070BDBB
:10229C00736D43F0200373650320F7E7736D43F010
:1022AC00200373650320F1E710B582B004460B469A
:1022BC004168B1F5827F10D06168B1F5827F03D19E
:1022CC00A168B1F5806F15D00092002280212046C4
:1022DC00FFF764FFE0B902B010BD8168B1F5004FA3
:1022EC0002D0B1F5806FE7D12068016821F0400180
:1022FC000160E1E70092002201212046FFF74EFF2A
:10230C000028E8D0636D43F0200363650320E2E707
:10231C00636D43F0200363650320DCE700286AD07B
:10232C0010B50446436A33B94368B3F5827F05D0D0
:10233C000023C36102E00023036143610023A36215
:10234C0094F85130BBB984F850302C4BA3652C4B0E
:10235C00E3652C4B23662C4B63662C4BA3662C4BF2
:10236C00E3662C4B23672C4B6367A36F002B3FD08A
:10237C00A36F20469847022384F8513022681368D3
:10238C0023F040031360636803F48273A26802F4C1
:10239C0004421343E26802F400621343226902F020
:1023AC0002021343626902F001021343A26902F4B0
:1023BC0000721343E26902F038021343226A02F0FE
:1023CC0080021343A26A02F40052216813430B608B
:1023DC00638B226803F0040353602268D36923F4EF
:1023EC000063D36100206065012384F8513010BD77
:1023FC000A4BA367BCE70120704700BF8921000886
:10240C008B2100088D2100088F21000891210008E4
:10241C009321000895210008972100081D0A000847
:10242C002DE9F04383B00446894690461D46FEF7DD
:10243C00C3FE94F85160F6B2012E40F0CC800746F2
:10244C00B9F1000F00F0C880B8F1000F00F0C480A3
:10245C0094F85030012B00F0C380012384F85030E5
:10246C00032384F8513000236365C4F83090A4F83A
:10247C003480A4F83680A363A387E3876364236462
:10248C00A368B3F5004F1ED023681A6812F0400FF2
:10249C0003D11A6842F040021A60E368B3F5006F8A
:1024AC001CD0636813B1B8F1010F5FD1226B2368A4
:1024BC0012781A73236B01332363E38E9BB2013BB7
:1024CC009BB2E38652E02268136823F0400313604A
:1024DC002268136843F480431360D5E7636813B133
:1024EC00B8F1010F15D1226B23681288DA60236BC7
:1024FC0002332363E38E9BB2013B9BB2E38608E07D
:10250C00FEF75AFEC01BA84202D3B5F1FF3F15D10E
:10251C00A5B1E38E9BB2002B42D023689A6812F0CF
:10252C00020FEDD0226B1288DA60236B0233236327
:10253C00E38E9BB2013B9BB2E386EAE7012384F86E
:10254C005130002384F85030032645E0226B12787A
:10255C001A73236B01332363B4F836C01FFA8CFC57
:10256C000CF1FF3C1FFA8CFCA4F836C0E38E9BB236
:10257C00B3B123689A6812F0020FE7D1FEF71CFE84
:10258C00C01BA84202D3B5F1FF3F01D1002DEDD104
:10259C00012384F85130002384F8503003261BE0CB
:1025AC003A4629462046FFF75DFE08B120236365B5
:1025BC00A36833B901932368DA6801929B6801938D
:1025CC00019B012384F85130002384F85030636D53
:1025DC0013B9002600E00226304603B0BDE8F083B4
:1025EC000226F9E72DE9F04383B00446884691466C
:1025FC001F460A9DFEF7E0FD064694F85130DBB20B
:10260C006268012B0AD0B2F5827F40F00581A26886
:10261C00002A40F00581042B40F00481B8F1000F32
:10262C0000F00281B9F1000F00F00081002F00F0E2
:10263C00FF8094F85030012B00F0FC80012384F8CB
:10264C00503094F85130DBB2042B02D0052384F8BF
:10265C00513000236365C4F83890E787A787C4F826
:10266C003080E786A7862364636423681A6812F0B7
:10267C00400F03D11A6842F040021A60E368B3F5C8
:10268C00006F11D063680BB1012F0BD1226B236843
:10269C0012781A73236B01332363E38E9BB2013BD5
:1026AC009BB2E386012771E063680BB1012F0BD15C
:1026BC00226B23681288DA60236B02332363E38E68
:1026CC009BB2013B9BB2E38601271BE023689A680F
:1026DC0012F0010F0ED0E28F92B25AB1DA68A36BEE
:1026EC001A80A36B0233A363E38F9BB2013B9BB2B3
:1026FC00E3870127FEF760FD801BA84202D3B5F1EA
:10270C00FF3F1ED1E38E9BB21BB9E38F9BB2002B14
:10271C0062D023689A6812F0020FD7D0E28E92B280
:10272C00002AD3D0002FD1D0226B1288DA60236B11
:10273C0002332363E38E9BB2013B9BB2E3860027FB
:10274C00C4E7012384F85130002384F8503003206F
:10275C0063E023689A6812F0010F0ED0E28F92B2F8
:10276C005AB1DA68A36B1A70A36B0133A363E38FBE
:10277C009BB2013B9BB2E3870127FEF71DFD831B38
:10278C00AB4202D3B5F1FF3F1ED1EDB1E38E9BB24C
:10279C0013B9E38F9BB2FBB123689A6812F0020F56
:1027AC00D7D0E28E92B2002AD3D0002FD1D0226B98
:1027BC0012781A73236B01332363E38E9BB2013BB4
:1027CC009BB2E3860027C4E7012384F85130002331
:1027DC0084F85030032020E0324629462046FFF78B
:1027EC0041FD90B9A36833B901932368DA6801926B
:1027FC009B680193019B012384F85130002384F8DA
:10280C005030636D4BB1012007E02023636500233A
:10281C0084F85030012000E0022003B0BDE8F083C2
:10282C000220FAE70220F8E70120F6E70120F4E79E
:10283C000120F2E70220F0E72DE9F04383B090F895
:10284C005160F6B2012E40F0B480044689469046A1
:10285C001D464368B3F5827F01D1836893B3FEF7BD
:10286C00ABFC0746B9F1000F00F0A480B8F1000FE3
:10287C0000F0A08094F85030012B00F09F800123D1
:10288C0084F85030042384F8513000236365C4F875
:10289C003890A4F83C80A4F83E802363A386E3869A
:1028AC0023646364A368B3F5004F15D023681A68DA
:1028BC0012F0400F03D11A6842F040021A60E3682C
:1028CC00F3B143E0042380F85130009513460A46D7
:1028DC00FFF788FE06466DE02268136823F040037C
:1028EC0013602268136823F480431360DEE7FEF75D
:1028FC0063FCC01BA84202D3B5F1FF3F15D1A5B1B3
:10290C00E38F9BB2002B42D023689A6812F0010F20
:10291C00EDD0A26B1B7B1370A36B0133A363E38F0E
:10292C009BB2013B9BB2E387EAE7012384F8513069
:10293C00002384F8503003263CE0FEF73DFCC01B1E
:10294C00A84202D3B5F1FF3F19D1C5B1E38F9BB2B9
:10295C00EBB123689A6812F0010FEED0DA68A36B22
:10296C001A80A36B0233A363B4F83EC01FFA8CFC2D
:10297C000CF1FF3C1FFA8CFCA4F83EC0E6E70123E7
:10298C0084F85130002384F85030032612E03A4684
:10299C0029462046FFF788FC08B1202363650123F4
:1029AC0084F85130002384F85030636D13B900263D
:1029BC0000E00226304603B0BDE8F0830226F9E7BA
:1029CC0010B584B0044602685168936803F0410066
:1029DC0001285AD013F0020F02D011F0800F5BD1F6
:1029EC0013F0600F5BD011F0200F58D013F0400F94
:1029FC000FD094F85100C0B2032852D0606D40F053
:102A0C000400606500200190D068019090680190EE
:102A1C00019813F0200F0CD0636D43F00103636534
:102A2C000023039393680393136823F0400313600C
:102A3C00039B636D002B32D02268536823F0E003B4
:102A4C005360012384F8513011F0030F31D0226808
:102A5C00536823F003035360E36C4BB1174A5A637A
:102A6C00E06CFFF747F918B1636D43F04003636501
:102A7C00A36CA3B1114A5A63A06CFFF73BF970B178
:102A8C00636D43F04003636509E011F0400FA1D082
:102A9C00236C2046984702E0636C2046984704B0AC
:102AAC0010BD00230293D368029393680293029B98
:102ABC00F5E7236F20469847F1E700BF99210008FE
:102ACC00704770477047704770477047704702688F
:102ADC0002F10C0353E8003F23F490730C3242E8EC
:102AEC0000310029F3D1026802F1140353E8003FCE
:102AFC0023F00103143242E800310029F3D1036BB7
:102B0C00012B05D0202380F842300023036370474B
:102B1C00026802F10C0353E8003F23F010030C325F
:102B2C0042E800310029F3D1ECE708B5406A0023F4
:102B3C00C385C384836D984708BD90F84130212B21
:102B4C0001D0022070478368B3F5805F17D0036A09
:102B5C005A1C02621A7803685A60C38C9BB2013B00
:102B6C009BB2C3844BB90268D36823F08003D36053
:102B7C000268D36843F04003D360002070470369B8
:102B8C00002BE4D1036A1B880268C3F3080353606B
:102B9C00036A02330362E0E708B50168CA6822F0F1
:102BAC004002CA60202280F84120C36C9847002064
:102BBC0008BD90F84230222B69D18368B3F5805F51
:102BCC0034D0826AB3F5805F04D0002B3BD103690B
:102BDC00002B38D103685B681370836A01338362FE
:102BEC00C38D9BB2013B9BB2C385002B51D100B569
:102BFC0083B00268D36823F02003D3600268D368E3
:102C0C0023F48073D3600268536923F0010353618A
:102C1C00202380F8423000234363036B012B18D030
:102C2C00436D9847002003B05DF804FB0269002A4D
:102C3C00C7D1826A03685B68C3F308031380836A95
:102C4C0002338362CCE703685B6803F07F03137085
:102C5C00C3E700230363026802F10C0353E8003F4F
:102C6C0023F010030C3242E800310029F3D1036841
:102C7C001A6812F0100F06D0002201921A68019205
:102C8C005B680193019BC36E818D9847CAE7022054
:102C9C00704700207047000010B5044602681369A5
:102CAC0023F44053C1680B431361836802691343D7
:102CBC0042691A430168CB6823F4B05323F00C0328
:102CCC001343CB600268536923F4407381690B434F
:102CDC0053610268134B9A4220D0FEF78BFD0246DB
:102CEC0002EB820202EB820263689B00B2FBF3F2FE
:102CFC000D48A0FB02314909642303FB11231B017E
:102D0C003233A0FB03035B0903F0F00202EB011268
:102D1C0003F00F03216813448B6010BDFEF77AFD9E
:102D2C000246DDE7003801401F85EB5110B582B03B
:102D3C00044602681368D068516913F00F0F09D16B
:102D4C0013F0200F0CD010F0200F09D02046FFF705
:102D5C0030FF16E011F0010115D110F4907F12D163
:102D6C00216B012979D013F0800F03D010F0800F64
:102D7C0040F0138113F0400F03D010F0400F40F0DF
:102D8C00108102B010BD13F0010F06D010F4807F3B
:102D9C0003D0626C42F00102626413F0040F04D0A1
:102DAC0019B1626C42F00202626413F0020F04D09B
:102DBC0019B1626C42F00402626413F0080F07D080
:102DCC0010F0200F00D119B1626C42F0080262645D
:102DDC00626C002AD5D013F0200F02D010F0200F17
:102DEC0029D123685B6903F04003626C12F0080F71
:102DFC0000D163B32046FFF76AFE23685B6913F0CA
:102E0C00400F20D0226802F1140353E8003F23F056
:102E1C004003143242E800310029F3D1E36B73B163
:102E2C00624A5A63E06BFEF765FF0028A9D0E06B9D
:102E3C00436B9847A5E72046FFF7BBFED1E7A36D90
:102E4C00204698479DE7A36D2046984799E7A36DC8
:102E5C00204698470023636493E713F0100F82D049
:102E6C0010F0100F3FF47FAF002301931368019310
:102E7C0053680193019B536913F0400F51D0E26BDF
:102E8C0013685B689BB2002B3FF47BAFA18D99421A
:102E9C007FF677AFE3859369202B37D0226802F158
:102EAC000C0353E8003F23F480730C3242E80031EA
:102EBC000029F3D1226802F1140353E8003F23F0F8
:102ECC000103143242E800310029F3D1226802F1E7
:102EDC00140353E8003F23F04003143242E800315E
:102EEC000029F3D1202384F8423000232363226885
:102EFC0002F10C0353E8003F23F010030C3242E8BC
:102F0C0000310029F3D1E06BFEF7D1FE022363639D
:102F1C00E26EA18DE38D9BB2C91A89B2204690470F
:102F2C002FE7A18DE38D9BB2C91A89B2E38D9BB2B9
:102F3C00002B3FF426AF00293FF423AF226802F1A7
:102F4C000C0353E8003F23F490730C3242E800303A
:102F5C000028F3D1226802F1140353E8003F23F058
:102F6C000103143242E800300028F3D1202384F806
:102F7C00423000232363226802F10C0353E8003F24
:102F8C0023F010030C3242E800300028F3D1022366
:102F9C006363E36E20469847F3E62046FFF7CDFDCA
:102FAC00EFE62046FFF7F8FDEBE600BF372B0008F5
:102FBC00094B8364094BC364094B0365094B436597
:102FCC00094B8365094BC365094B0366094B436683
:102FDC00094BC366704700BFCF2A0008CD2A0008F2
:102FEC00D12A0008C5040008F1040008D32A0008FF
:102FFC00D52A0008D72A0008D92A0008002834D07E
:10300C0010B5044690F8413013B3242384F84130B2
:10301C002268D36823F40053D3602046FFF73CFEAC
:10302C002268136923F4904313612268536923F0D7
:10303C002A0353612268D36843F40053D360002001
:10304C006064202384F8413084F84230606310BD02
:10305C0080F84030FFF7ACFF236F1BB1236F204685
:10306C009847D2E7024B2367F8E70120704700BF6F
:10307C00A50A000881628285C2850023436422234D
:10308C0080F84230036923B10268D36843F480733B
:10309C00D3600268536943F0010353610268D3683B
:1030AC0043F02003D3600020704708B590F84230FD
:1030BC00202B08D149B10AB9012008BD00230363B4
:1030CC00FFF7D8FFF9E70220F7E70120F5E7704793
:1030DC0008B501224FF480510148FEF74CFD08BDA4
:1030EC00000C014008B500224FF480510148FEF756
:1030FC0042FD08BD000C014008B501224FF40061EF
:10310C000148FEF738FD08BD0008014008B5002253
:10311C004FF400610148FEF72EFD08BD0008014088
:10312C0070B582B00C46154640F020008DF80700B3
:10313C00FFF7D8FF094E4FF47A7301220DF1070106
:10314C003046FFF76DF94FF47A732A462146304624
:10315C00FFF766F9FFF7BCFF02B070BD0401002059
:10316C0030B583B00C468DF8070000238DF806307F
:10317C00FFF7B8FF0B4D4FF47A7301220DF10701E5
:10318C002846FFF74DF94FF47A7322460DF10601EC
:10319C002846FFF751FBFFF79BFF9DF8060003B095
:1031AC0030BD00BF0401002000B583B08DF80700CE
:1031BC004FF47A7301220DF107010348FFF730F940
:1031CC0003B05DF804FB00BF0401002010B582B011
:1031DC0000248DF8074001212046FFF7C1FF8DF830
:1031EC00070040F002008DF8070001220DF10701E5
:1031FC002046FFF795FF02B010BD10B582B0044613
:10320C0000238DF8073001210620FFF7A9FF8DF868
:10321C00070000F0B8038DF8073043EA44038DF83B
:10322C00073001220DF107010620FFF779FF02B0EC
:10323C0010BD10B582B0044600238DF80730012173
:10324C000620FFF78DFF8DF8070000F0D7038DF8EF
:10325C000730012C09D0022C0CD001220DF10701F2
:10326C000620FFF75DFF02B010BD43F008008DF89B
:10327C000700F2E743F020008DF80700EDE700B5FA
:10328C0083B08DF8070001220DF107010520FFF72F
:10329C0047FF03B05DF804FB08B50146052210207A
:1032AC00FFF73EFF08BD00B583B08DF80710CBB219
:1032BC00202B02D920238DF8073005280AD8DFE807
:1032CC0000F0030C131A212801220DF10701112023
:1032DC00FFF726FF03B05DF804FB01220DF1070197
:1032EC001220FFF71DFFF5E701220DF10701132056
:1032FC00FFF716FFEEE701220DF107011420FFF78F
:10330C000FFFE7E701220DF107011520FFF708FF7A
:10331C00E0E701220DF107011620FFF701FFD9E7C5
:10332C0030B583B004460D4600238DF807300121DB
:10333C000220FFF715FF8DF80700052C0FD8DFE8EA
:10334C0004F00316222E3A46052229460A20FFF7DE
:10335C00E7FE9DF8073043F001038DF8073001229A
:10336C000DF107010220FFF7DBFE03B030BD052293
:10337C0029460B20FFF7D4FE9DF8073043F00203DB
:10338C008DF80730EBE7012229460C20FFF7C8FE29
:10339C009DF8073043F004038DF80730DFE7012276
:1033AC0029460D20FFF7BCFE9DF8073043F00803BB
:1033BC008DF80730D3E7012229460E20FFF7B0FE27
:1033CC009DF8073043F010038DF80730C7E7012252
:1033DC0029460F20FFF7A4FE9DF8073043F0200389
:1033EC008DF80730BBE730B583B005460C4601219C
:1033FC000020FFF7B5FE8DF8070000F0F3038DF801
:10340C000730A40044EAC50464B223438DF80730A6
:10341C0001220DF107010020FFF782FE03B030BD41
:10342C0000B583B08DF80700C3B2023B8DF80730AE
:10343C0001220DF107010320FFF772FE03B05DF8C6
:10344C0004FB08B5FFF74EFEE120FFF7ADFEFFF7DA
:10345C003FFE08BD08B5FFF745FEE220FFF7A4FECE
:10346C00FFF736FE08BD000000B585B000238DF8CF
:10347C000F30FF238DF80E30FFF734FE4FF47A73C4
:10348C00009301230DF10F020DF10E010448FFF71B
:10349C00A9F8FFF71DFE9DF80F0005B05DF804FBC1
:1034AC000401002000B583B000238DF80730FFF72E
:1034BC00DBFF8DF8070040F040008DF8070001227B
:1034CC000DF107010720FFF72BFE03B05DF804FB9D
:1034DC0000B583B000238DF80730FFF7C5FF8DF8DA
:1034EC00070040F020008DF8070001220DF10701C4
:1034FC000720FFF715FE03B05DF804FB00B583B0A1
:10350C0000238DF80730FFF7AFFF8DF8070040F070
:10351C0010008DF8070001220DF107010720FFF7BD
:10352C00FFFD03B05DF804FB10B582B000248DF8EC
:10353C00074001212046FFF713FE8DF8070020F00D
:10354C0001008DF8070001220DF107012046FFF75D
:10355C00E7FD02B010BD10B582B0044601211D205C
:10356C00FFF7FEFD8DF80700012C0BD020F00400B6
:10357C008DF8070001220DF107011D20FFF7D0FD8A
:10358C0002B010BD40F004008DF80700F2E730B532
:10359C0083B004460D4601211C20FFF7E1FD8DF898
:1035AC000700052C00D9052465B10123A34018435D
:1035BC008DF8070001220DF107011C20FFF7B0FD6B
:1035CC0003B030BD0123A340DB435BB218408DF840
:1035DC000700EFE710B582B0044601210846FFF75B
:1035EC00BFFD8DF8070054B13F238DF80730012241
:1035FC000DF107011046FFF793FD02B010BD00233B
:10360C008DF80730F3E710B582B0044601211D2078
:10361C00FFF7A6FD8DF807005CB140F002008DF8B5
:10362C00070001220DF107011D20FFF779FD02B003
:10363C0010BD20F002008DF80700F2E710B582B043
:10364C00044601210420FFF78BFD8DF8070000F0E4
:10365C000F038DF8073043EA04138DF8073001226D
:10366C000DF107010420FFF75BFD02B010BD10B592
:10367C0082B0044601210420FFF772FD8DF807008B
:10368C0000F0F0038DF8073023438DF8073001224A
:10369C000DF107010420FFF743FD02B010BD00003F
:1036AC0070B582B004460D46FFF730FDA0238DF8AF
:1036BC000730FFF717FD134E4FF47A7301220DF10B
:1036CC0007013046FEF7ACFE4FF47A732A462146CA
:1036DC003046FEF7A5FEFFF7FBFCFFF70DFD0120C2
:1036EC00FDF770FDFFF712FDFFF7BEFE10F01000A6
:1036FC0001D102B070BDFFF701FFFFF7A2FE012060
:10370C00F7E700BF0401002008B5FFF75FFDFFF7E6
:10371C0098FEFFF79FFEFFF7C5FEFFF7D9FEFFF7F8
:10372C00EDFE08BD10B54B20FFF7A9FD0120FDF7FC
:10373C0049FD01210520FFF713FD04464C20FFF73E
:10374C009EFD4B2C14BF0020012010BD38B5044643
:10375C00084D01224FF480512846FEF70CFA204602
:10376C00FDF730FD00224FF480512846FEF703FA96
:10377C0038BD00BF0008014008B56420FFF7E6FF24
:10378C006420FDF71FFD6420FFF7E0FF08BD00007B
:10379C0038B5354D00242C606C60AC60EC602C614D
:1037AC006C61FDF709FD6861FFF792FCFFF7A4FC63
:1037BC000520FDF707FDFFF7A9FCFFF7A5FFFFF7B5
:1037CC00B3FE0120FFF706FF0120FFF71CFF0120CD
:1037DC00FFF7C1FE01210846FFF705FE0120FFF7A8
:1037EC000CFD2046FFF725FD4C20FFF748FD05207A
:1037FC00FFF716FE04E00121E0B2FFF7C8FE01342A
:10380C00052CF8DD0A210020FFF74DFD0420FFF701
:10381C0015FF0A20FFF72BFF144C2046FFF73CFD49
:10382C0021460020FFF77CFDFFF766FC0A20FDF720
:10383C00C9FCFFF777FF04460B4B01221A70587036
:10384C0050B1FFF799FF0A4B00221A70FDF7B4FC38
:10385C00084B1860204638BD4FF4FA70FFF776FF1E
:10386C00034B01221A70F1E78002002010000020A7
:10387C006D02002070020020024B187CB0FA80F020
:10388C00400970478002002038B50378AA2B03D179
:10389C000446C37A552B00D038BD084D01232B7438
:1038AC00FDF78AFC6861064BD4F80100D4F80510CA
:1038BC0003C3B4F809201A80EEE700BF8002002091
:1038CC007402002078B10E490B7801330D4A12783E
:1038DC00D2B293FBF2F002FB10330B70084B1A7848
:1038EC00094B1A707047064B1B782BB9054B1B788C
:1038FC00013B034A1370F1E7013B014A1370EDE7FA
:10390C006C0200200C0000207402002038B5134B10
:10391C001C780CB9204638BD0A211148FFF7C0FEAF
:10392C000546FDF749FC0D4BD86055B90120987040
:10393C000021D9705A6802445A605870094B1970AA
:10394C00E8E7064B00249C700121D9709A680A4460
:10395C009A605C70034B1970DCE700BF800200209A
:10396C00740200206D02002038B5FDF725FC114BC8
:10397C001B78EBB10446104B1B68C31A41F288321A
:10398C00934215D90D4B5B7853B90025022D07DCFA
:10399C003220FFF7DBFE6420FDF714FC0135F5E760
:1039AC00054B1C60054B5B7813B1024B00221A705F
:1039BC0038BD00BF6D020020700200208002002084
:1039CC0010B5FFF751FD044610F0200F06D114F08E
:1039DC00100F06D114F0400F08D110BDFFF778FD81
:1039EC00F5E7FFF78BFDFFF72CFDF3E7FFF75AFD2B
:1039FC00F3E70000FFF76BFB0B480C490C4A002364
:103A0C0002E0D458C4500433C4188C42F9D3094A88
:103A1C00094C002301E013600432A242FBD300F0F6
:103A2C0017F8FCF765FE7047000000201800002016
:103A3C00F03A00081800002098020020FEE7034628
:103A4C000244934200D1704703F8011BF9E70000D0
:103A5C0070B500260C4D0D4B5B1B9C10A64209D17A
:103A6C00002600F019F80A4D0A4B5B1B9C10A6426D
:103A7C0005D170BD55F8043B98470136EEE755F873
:103A8C00043B98470136F2E7E83A0008E83A0008A8
:103A9C00E83A0008EC3A0008F8B500BFF8BC08BCDE
:103AAC009E467047F8B500BFF8BC08BC9E467047F0
:103ABC000102000002030405060708090A0B0C0D9D
:103ACC000E0F1010000000000102030400000000A3
:0C3ADC00000000000102030406070809B6
:043AE800750100085C
:043AEC004D01000880
:103AF000010000001000000000127A001000000019
:083B0000314E6F646500000006
:0400000508003A01B4
:00000001FF
